{
  "contractName": "SimpleLifeContractFactory",
  "abi": [
    {
      "inputs": [
        {
          "internalType": "uint256",
          "name": "",
          "type": "uint256"
        }
      ],
      "name": "simpleLifeContracts",
      "outputs": [
        {
          "internalType": "contract SimpleLife",
          "name": "",
          "type": "address"
        }
      ],
      "stateMutability": "view",
      "type": "function",
      "constant": true
    },
    {
      "inputs": [
        {
          "internalType": "address payable",
          "name": "_powerOfAttorney",
          "type": "address"
        }
      ],
      "name": "createContract",
      "outputs": [],
      "stateMutability": "payable",
      "type": "function",
      "payable": true
    },
    {
      "inputs": [],
      "name": "getSimpleLifeContracts",
      "outputs": [
        {
          "internalType": "contract SimpleLife[]",
          "name": "",
          "type": "address[]"
        }
      ],
      "stateMutability": "view",
      "type": "function",
      "constant": true
    }
  ],
  "bytecode": "0x608060405234801561001057600080fd5b50611d11806100206000396000f3fe6080604052600436106100345760003560e01c8063736fefc214610039578063bce9e17914610076578063e2d73ccd146100a1575b600080fd5b34801561004557600080fd5b50610060600480360381019061005b9190610274565b6100bd565b60405161006d9190610320565b60405180910390f35b34801561008257600080fd5b5061008b6100fc565b60405161009891906103f9565b60405180910390f35b6100bb60048036038101906100b69190610459565b61018a565b005b600081815481106100cd57600080fd5b906000526020600020016000915054906101000a900473ffffffffffffffffffffffffffffffffffffffff1681565b6060600080548060200260200160405190810160405280929190818152602001828054801561018057602002820191906000526020600020905b8160009054906101000a900473ffffffffffffffffffffffffffffffffffffffff1673ffffffffffffffffffffffffffffffffffffffff1681526020019060010190808311610136575b5050505050905090565b6000338260405161019a9061022b565b6101a5929190610495565b604051809103906000f0801580156101c1573d6000803e3d6000fd5b5090506000819080600181540180825580915050600190039060005260206000200160009091909190916101000a81548173ffffffffffffffffffffffffffffffffffffffff021916908373ffffffffffffffffffffffffffffffffffffffff1602179055505050565b61181d80620004bf83390190565b600080fd5b6000819050919050565b6102518161023e565b811461025c57600080fd5b50565b60008135905061026e81610248565b92915050565b60006020828403121561028a57610289610239565b5b60006102988482850161025f565b91505092915050565b600073ffffffffffffffffffffffffffffffffffffffff82169050919050565b6000819050919050565b60006102e66102e16102dc846102a1565b6102c1565b6102a1565b9050919050565b60006102f8826102cb565b9050919050565b600061030a826102ed565b9050919050565b61031a816102ff565b82525050565b60006020820190506103356000830184610311565b92915050565b600081519050919050565b600082825260208201905092915050565b6000819050602082019050919050565b610370816102ff565b82525050565b60006103828383610367565b60208301905092915050565b6000602082019050919050565b60006103a68261033b565b6103b08185610346565b93506103bb83610357565b8060005b838110156103ec5781516103d38882610376565b97506103de8361038e565b9250506001810190506103bf565b5085935050505092915050565b60006020820190508181036000830152610413818461039b565b905092915050565b6000610426826102a1565b9050919050565b6104368161041b565b811461044157600080fd5b50565b6000813590506104538161042d565b92915050565b60006020828403121561046f5761046e610239565b5b600061047d84828501610444565b91505092915050565b61048f8161041b565b82525050565b60006040820190506104aa6000830185610486565b6104b76020830184610486565b939250505056fe60806040523480156200001157600080fd5b506040516200181d3803806200181d8339818101604052810190620000379190620001b6565b8173ffffffffffffffffffffffffffffffffffffffff168173ffffffffffffffffffffffffffffffffffffffff1603620000a8576040517f08c379a00000000000000000000000000000000000000000000000000000000081526004016200009f9062000284565b60405180910390fd5b816000806101000a81548173ffffffffffffffffffffffffffffffffffffffff021916908373ffffffffffffffffffffffffffffffffffffffff16021790555080600560006101000a81548173ffffffffffffffffffffffffffffffffffffffff021916908373ffffffffffffffffffffffffffffffffffffffff1602179055506001600760006101000a81548160ff0219169083151502179055505050620002a6565b600080fd5b600073ffffffffffffffffffffffffffffffffffffffff82169050919050565b60006200017e8262000151565b9050919050565b620001908162000171565b81146200019c57600080fd5b50565b600081519050620001b08162000185565b92915050565b60008060408385031215620001d057620001cf6200014c565b5b6000620001e0858286016200019f565b9250506020620001f3858286016200019f565b9150509250929050565b600082825260208201905092915050565b7f506f776572206f66206174746f726e65792063616e277420626520746865206f60008201527f776e6572206f662074686520636f6e74726163742e0000000000000000000000602082015250565b60006200026c603583620001fd565b915062000279826200020e565b604082019050919050565b600060208201905081810360008301526200029f816200025d565b9050919050565b61156780620002b66000396000f3fe6080604052600436106100c25760003560e01c806399baa10c1161007f578063ba3b410d11610059578063ba3b410d14610228578063c3ae41ab14610251578063cdbde99e1461027c578063d601df17146102a7576100c2565b806399baa10c146101eb5780639c21ef0b146101f5578063a26759cb1461021e576100c2565b806322f3e2d4146100c757806323e86025146100f25780634d9c8baa1461012f5780636029f68a14610158578063882d1c74146101955780638da5cb5b146101c0575b600080fd5b3480156100d357600080fd5b506100dc6102d2565b6040516100e99190610d3c565b60405180910390f35b3480156100fe57600080fd5b5061011960048036038101906101149190610dba565b6102e5565b6040516101269190610e00565b60405180910390f35b34801561013b57600080fd5b5061015660048036038101906101519190610e47565b6102fd565b005b34801561016457600080fd5b5061017f600480360381019061017a9190610e87565b6104db565b60405161018c9190610ed5565b60405180910390f35b3480156101a157600080fd5b506101aa61051a565b6040516101b79190610e00565b60405180910390f35b3480156101cc57600080fd5b506101d5610520565b6040516101e29190610eff565b60405180910390f35b6101f3610544565b005b34801561020157600080fd5b5061021c60048036038101906102179190610f46565b6108ac565b005b610226610ad7565b005b34801561023457600080fd5b5061024f600480360381019061024a9190610e47565b610bcf565b005b34801561025d57600080fd5b50610266610cef565b6040516102739190610e00565b60405180910390f35b34801561028857600080fd5b50610291610cf5565b60405161029e9190610e00565b60405180910390f35b3480156102b357600080fd5b506102bc610cfb565b6040516102c99190610ed5565b60405180910390f35b600760009054906101000a900460ff1681565b60066020528060005260406000206000915090505481565b600760009054906101000a900460ff1661034c576040517f08c379a000000000000000000000000000000000000000000000000000000000815260040161034390611009565b60405180910390fd5b60008054906101000a900473ffffffffffffffffffffffffffffffffffffffff1673ffffffffffffffffffffffffffffffffffffffff163373ffffffffffffffffffffffffffffffffffffffff16146103da576040517f08c379a00000000000000000000000000000000000000000000000000000000081526004016103d19061109b565b60405180910390fd5b600081600660008573ffffffffffffffffffffffffffffffffffffffff1673ffffffffffffffffffffffffffffffffffffffff1681526020019081526020016000205461042791906110ea565b1015610468576040517f08c379a000000000000000000000000000000000000000000000000000000000815260040161045f90611190565b60405180910390fd5b80600660008473ffffffffffffffffffffffffffffffffffffffff1673ffffffffffffffffffffffffffffffffffffffff16815260200190815260200160002060008282546104b791906110ea565b9250508190555080600260008282546104d091906110ea565b925050819055505050565b600481815481106104eb57600080fd5b906000526020600020016000915054906101000a900473ffffffffffffffffffffffffffffffffffffffff1681565b60025481565b60008054906101000a900473ffffffffffffffffffffffffffffffffffffffff1681565b600760009054906101000a900460ff16610593576040517f08c379a000000000000000000000000000000000000000000000000000000000815260040161058a90611009565b60405180910390fd5b600560009054906101000a900473ffffffffffffffffffffffffffffffffffffffff1673ffffffffffffffffffffffffffffffffffffffff163373ffffffffffffffffffffffffffffffffffffffff1614610623576040517f08c379a000000000000000000000000000000000000000000000000000000000815260040161061a90611222565b60405180910390fd5b60015460028190555060005b6004805490508110156107b75760006004828154811061065257610651611242565b5b9060005260206000200160009054906101000a900473ffffffffffffffffffffffffffffffffffffffff1673ffffffffffffffffffffffffffffffffffffffff1660066000600485815481106106ab576106aa611242565b5b9060005260206000200160009054906101000a900473ffffffffffffffffffffffffffffffffffffffff1673ffffffffffffffffffffffffffffffffffffffff1673ffffffffffffffffffffffffffffffffffffffff1681526020019081526020016000205460405161071d906112a2565b60006040518083038185875af1925050503d806000811461075a576040519150601f19603f3d011682016040523d82523d6000602084013e61075f565b606091505b50509050806107a3576040517f08c379a000000000000000000000000000000000000000000000000000000000815260040161079a90611303565b60405180910390fd5b5080806107af90611323565b91505061062f565b5060006001819055506000600560009054906101000a900473ffffffffffffffffffffffffffffffffffffffff1673ffffffffffffffffffffffffffffffffffffffff1647604051610808906112a2565b60006040518083038185875af1925050503d8060008114610845576040519150601f19603f3d011682016040523d82523d6000602084013e61084a565b606091505b505090508061088e576040517f08c379a000000000000000000000000000000000000000000000000000000000815260040161088590611303565b60405180910390fd5b6000600760006101000a81548160ff02191690831515021790555050565b600760009054906101000a900460ff166108fb576040517f08c379a00000000000000000000000000000000000000000000000000000000081526004016108f290611009565b60405180910390fd5b60008054906101000a900473ffffffffffffffffffffffffffffffffffffffff1673ffffffffffffffffffffffffffffffffffffffff163373ffffffffffffffffffffffffffffffffffffffff1614610989576040517f08c379a00000000000000000000000000000000000000000000000000000000081526004016109809061109b565b60405180910390fd5b60008160025460015461099c91906110ea565b6109a691906110ea565b10156109e7576040517f08c379a00000000000000000000000000000000000000000000000000000000081526004016109de90611403565b60405180910390fd5b6004829080600181540180825580915050600190039060005260206000200160009091909190916101000a81548173ffffffffffffffffffffffffffffffffffffffff021916908373ffffffffffffffffffffffffffffffffffffffff16021790555080600660008473ffffffffffffffffffffffffffffffffffffffff1673ffffffffffffffffffffffffffffffffffffffff1681526020019081526020016000206000828254610a999190611423565b925050819055508060026000828254610ab29190611423565b92505081905550600160036000828254610acc9190611423565b925050819055505050565b600760009054906101000a900460ff16610b26576040517f08c379a0000000000000000000000000000000000000000000000000000000008152600401610b1d90611009565b60405180910390fd5b60008054906101000a900473ffffffffffffffffffffffffffffffffffffffff1673ffffffffffffffffffffffffffffffffffffffff163373ffffffffffffffffffffffffffffffffffffffff1614610bb4576040517f08c379a0000000000000000000000000000000000000000000000000000000008152600401610bab9061109b565b60405180910390fd5b3460016000828254610bc69190611423565b92505081905550565b600760009054906101000a900460ff16610c1e576040517f08c379a0000000000000000000000000000000000000000000000000000000008152600401610c1590611009565b60405180910390fd5b600081600254600154610c3191906110ea565b610c3b91906110ea565b1015610c7c576040517f08c379a0000000000000000000000000000000000000000000000000000000008152600401610c7390611511565b60405180910390fd5b80600660008473ffffffffffffffffffffffffffffffffffffffff1673ffffffffffffffffffffffffffffffffffffffff1681526020019081526020016000206000828254610ccb9190611423565b925050819055508060026000828254610ce49190611423565b925050819055505050565b60015481565b60035481565b600560009054906101000a900473ffffffffffffffffffffffffffffffffffffffff1681565b60008115159050919050565b610d3681610d21565b82525050565b6000602082019050610d516000830184610d2d565b92915050565b600080fd5b600073ffffffffffffffffffffffffffffffffffffffff82169050919050565b6000610d8782610d5c565b9050919050565b610d9781610d7c565b8114610da257600080fd5b50565b600081359050610db481610d8e565b92915050565b600060208284031215610dd057610dcf610d57565b5b6000610dde84828501610da5565b91505092915050565b6000819050919050565b610dfa81610de7565b82525050565b6000602082019050610e156000830184610df1565b92915050565b610e2481610de7565b8114610e2f57600080fd5b50565b600081359050610e4181610e1b565b92915050565b60008060408385031215610e5e57610e5d610d57565b5b6000610e6c85828601610da5565b9250506020610e7d85828601610e32565b9150509250929050565b600060208284031215610e9d57610e9c610d57565b5b6000610eab84828501610e32565b91505092915050565b6000610ebf82610d5c565b9050919050565b610ecf81610eb4565b82525050565b6000602082019050610eea6000830184610ec6565b92915050565b610ef981610d7c565b82525050565b6000602082019050610f146000830184610ef0565b92915050565b610f2381610eb4565b8114610f2e57600080fd5b50565b600081359050610f4081610f1a565b92915050565b60008060408385031215610f5d57610f5c610d57565b5b6000610f6b85828601610f31565b9250506020610f7c85828601610e32565b9150509250929050565b600082825260208201905092915050565b7f5468697320636f6e7472616374206973206e6f206c6f6e67657220616374697660008201527f652e000000000000000000000000000000000000000000000000000000000000602082015250565b6000610ff3602283610f86565b9150610ffe82610f97565b604082019050919050565b6000602082019050818103600083015261102281610fe6565b9050919050565b7f4f6e6c7920746865206f776e6572206f66207468697320636f6e74726163742060008201527f63616e20646f2074686973000000000000000000000000000000000000000000602082015250565b6000611085602b83610f86565b915061109082611029565b604082019050919050565b600060208201905081810360008301526110b481611078565b9050919050565b7f4e487b7100000000000000000000000000000000000000000000000000000000600052601160045260246000fd5b60006110f582610de7565b915061110083610de7565b925082821015611113576111126110bb565b5b828203905092915050565b7f596f752063616e27742064656372656173652074686520616d6f756e7420626560008201527f6c6f77207a65726f000000000000000000000000000000000000000000000000602082015250565b600061117a602883610f86565b91506111858261111e565b604082019050919050565b600060208201905081810360008301526111a98161116d565b9050919050565b7f4f6e6c792074686520706f776572206f66206174746f726e65792063616e206560008201527f78656375746520746869732066756e6374696f6e000000000000000000000000602082015250565b600061120c603483610f86565b9150611217826111b0565b604082019050919050565b6000602082019050818103600083015261123b816111ff565b9050919050565b7f4e487b7100000000000000000000000000000000000000000000000000000000600052603260045260246000fd5b600081905092915050565b50565b600061128c600083611271565b91506112978261127c565b600082019050919050565b60006112ad8261127f565b9150819050919050565b7f5472616e73666572206661696c65642e00000000000000000000000000000000600082015250565b60006112ed601083610f86565b91506112f8826112b7565b602082019050919050565b6000602082019050818103600083015261131c816112e0565b9050919050565b600061132e82610de7565b91507fffffffffffffffffffffffffffffffffffffffffffffffffffffffffffffffff82036113605761135f6110bb565b5b600182019050919050565b7f5468657265206172656e277420656e6f7567682066756e647320696e20636f6e60008201527f74726163742e20506c6561736520616464206d6f7265206265666f726520616460208201527f64696e6720696e68657269746f72206f722072656475636520616d6f756e742e604082015250565b60006113ed606083610f86565b91506113f88261136b565b606082019050919050565b6000602082019050818103600083015261141c816113e0565b9050919050565b600061142e82610de7565b915061143983610de7565b9250827fffffffffffffffffffffffffffffffffffffffffffffffffffffffffffffffff0382111561146e5761146d6110bb565b5b828201905092915050565b7f5468657265206172656e277420656e6f7567682066756e647320696e20636f6e60008201527f74726163742e20506c6561736520616464206d6f7265206265666f726520696e60208201527f6372656173696e6720696e68657269746f727320616d6f756e742e0000000000604082015250565b60006114fb605b83610f86565b915061150682611479565b606082019050919050565b6000602082019050818103600083015261152a816114ee565b905091905056fea264697066735822122064c1dd590610b4c828afc7e9f8e33f96ecd8dcc081f480cbad4a8667ee54760664736f6c634300080e0033a2646970667358221220b4ee7a9aae0e6ef0c800ed18c5f53ad47ba346092687206aa0686e7aabd1670564736f6c634300080e0033",
  "immutableReferences": {},
  "source": "//SPDX-License-Identifier: MIT\r\npragma solidity ^0.8.6;\r\n\r\ncontract SimpleLifeContractFactory {\r\n\r\n    SimpleLife[] public simpleLifeContracts;\r\n\r\n    function createContract(address payable _powerOfAttorney) payable public {\r\n        SimpleLife newSimpleLifeContract = new SimpleLife( payable (msg.sender), _powerOfAttorney);\r\n        simpleLifeContracts.push(newSimpleLifeContract);\r\n    }\r\n\r\n    function getSimpleLifeContracts() public view returns(SimpleLife[] memory) {\r\n        return simpleLifeContracts;\r\n    }\r\n\r\n}\r\n\r\ncontract SimpleLife {\r\n    address public owner;\r\n    uint256 public totalInheritanceValue;\r\n    uint256 public valueDeployed;\r\n    uint256 public totalInheritors;\r\n    address payable [] public inheritorWallets;\r\n    address payable public powerOfAttorney;\r\n    mapping(address => uint256) public inheritanceAmount;\r\n    bool public isActive;\r\n\r\n    constructor(address payable _owner, address payable _powerOfAttorney) {\r\n        require(_powerOfAttorney != _owner, \"Power of attorney can't be the owner of the contract.\");\r\n        owner = _owner;\r\n        powerOfAttorney = _powerOfAttorney;\r\n        isActive = true;\r\n    }\r\n\r\n    modifier onlyOwner {\r\n        require(msg.sender == owner, \"Only the owner of this contract can do this\");\r\n        _;\r\n    }\r\n\r\n    modifier onlyPowerOfAttorney {\r\n        require(msg.sender == powerOfAttorney, \"Only the power of attorney can execute this function\");\r\n        _;\r\n    }\r\n\r\n    modifier checkIsActive {\r\n        require(isActive, \"This contract is no longer active.\");\r\n        _;\r\n    }\r\n\r\n    function addFunds() public payable checkIsActive onlyOwner {\r\n        totalInheritanceValue += msg.value;\r\n    }\r\n\r\n    function addInheritor(address payable _inheritor, uint256 _amount) public checkIsActive onlyOwner {\r\n        require(((totalInheritanceValue - valueDeployed) - _amount) >= 0, \"There aren't enough funds in contract. Please add more before adding inheritor or reduce amount.\");\r\n        inheritorWallets.push(_inheritor);\r\n        inheritanceAmount[_inheritor] += _amount;\r\n        valueDeployed += _amount;\r\n        totalInheritors += 1;\r\n    }\r\n\r\n    function decreaseInheritanceAmount(address _inheritor, uint256 _amount) public checkIsActive onlyOwner {\r\n        require((inheritanceAmount[_inheritor] - _amount) >= 0, \"You can't decrease the amount below zero\");\r\n        inheritanceAmount[_inheritor] -= _amount;\r\n        valueDeployed -= _amount;\r\n    }\r\n\r\n    function increaseInheritanceAmount(address _inheritor, uint256 _amount) public checkIsActive {\r\n        require(((totalInheritanceValue - valueDeployed) - _amount) >= 0, \"There aren't enough funds in contract. Please add more before increasing inheritors amount.\");\r\n        inheritanceAmount[_inheritor] += _amount;\r\n        valueDeployed += _amount;\r\n    }\r\n\r\n    function isDead() public payable checkIsActive onlyPowerOfAttorney {\r\n        valueDeployed = totalInheritanceValue;\r\n        for(uint256 i = 0; i < inheritorWallets.length; i++) {\r\n            (bool success, ) = inheritorWallets[i].call{value: inheritanceAmount[inheritorWallets[i]]}(\"\");\r\n            require(success, \"Transfer failed.\");\r\n        }\r\n        totalInheritanceValue = 0;\r\n        (bool success, ) = powerOfAttorney.call{value: address(this).balance}(\"\");\r\n            require(success, \"Transfer failed.\");\r\n        isActive = false;\r\n    }\r\n\r\n}",
  "sourcePath": "C:\\Users\\Benjamin\\Desktop\\kingsland-dapp-react\\contracts\\SimpleLifeContractFactory.sol",
  "compiler": {
    "name": "solc",
    "version": "0.8.14+commit.80d49f37.Emscripten.clang"
  },
  "schemaVersion": "3.4.7",
  "updatedAt": "2022-07-08T22:41:50.847Z",
  "networkType": "ethereum",
  "devdoc": {
    "kind": "dev",
    "methods": {},
    "version": 1
  },
  "userdoc": {
    "kind": "user",
    "methods": {},
    "version": 1
  }
}